:020000040800F2
:1000000088BB002061640008190D00081B0D000862
:100010001F0D0008230D0008270D00080000000038
:100020000000000000000000000000002B0D000890
:100030002D0D0008000000002F0D0008310D0008F4
:100040007B6400087B6400087B6400087B64000814
:100050007B6400087B6400087B6400087B64000804
:100060007B6400087B6400087B6400087B640008F4
:100070007B6400087B6400087B6400087B640008E4
:100080007B6400087B6400087B6400087B640008D4
:100090007B6400087B6400087B6400087B640008C4
:1000A0007B6400087B6400087B6400087B640008B4
:1000B0007B6400082B620108B56100087B640008BE
:1000C0007B6400087B6400087B6400087B64000894
:1000D0007B640008296400087B6400087B640008D6
:1000E000D30D00087B6400087B6400087B64000873
:1000F0007B6400087B6400087B6400087B64000864
:100100007B640008394800087B6400087B640008B1
:100110007B6400087B64000829E500087B64000814
:100120007B6400087B6400087B6400087B64000833
:1001300000F002F800F07CF80AA090E8000C82447D
:100140008344AAF10107DA4501D100F071F8AFF25A
:10015000090EBAE80F0013F0010F18BFFB1A43F0A5
:10016000010318478CE60200ACE602000A444FF097
:10017000000C10F8013B13F0070408BF10F8014B06
:100180001D1108BF10F8015B641E05D010F8016B4B
:10019000641E01F8016BF9D113F0080F1EBF10F8AF
:1001A000014BAD1C0C1B09D16D1E58BF01F801CBD2
:1001B000FAD505E014F8016B01F8016B6D1EF9D555
:1001C0009142D6D37047000000230024002500266A
:1001D000103A28BF78C1FBD8520728BF30C148BFAA
:1001E0000B607047662929F0F281692924F0F880B4
:1001F000642924F0F580782924F02E81632924F0E5
:100200002887732924F02D87002070471FB524F01C
:10021000E3FF04000020002127F0AEFF401C6060D7
:100220000020002127F0BEFFE0601FBD10B510BD0B
:1002300025F004F91146FFF7E9FF00F039FB25F03E
:1002400075FB03B4FFF7F2FF03BC06F023F80000D0
:100250002DE9F0418CB00024FE48D0F8008022E364
:10026000FD480068072801DA12F0DBFFFB48006850
:1002700010B10020FA49887001F01EFCF6480068B1
:10028000002842D0F648007848B3F649F64A12688A
:1002900001EBC210F5A124F011FA38B9F149F24A84
:1002A000126801EBC21001F0D4FB14E001F0C8FBAE
:1002B000012080F3138800BF00BFED48006800F400
:1002C000E060EC490843001DE9490860BFF34F8F27
:1002D00000BF00BFFEE7E8A024F012F801E011F033
:1002E00031F8DD48006800280FDDDB480068401E5B
:1002F000D9490860DC490968481CC11700EB5171F5
:10030000C910A0EBC101D84A11600DF090FC10F0AB
:10031000DEFB15F0D5FD06F029F8092C71D2DFE8D7
:1003200004F0053A7198B9E0EEEDEC00D3490868A5
:10033000D34929F09BF81DD2D0490868D14928F04B
:1003400095FF17D20120D0A110220023CDE9003261
:10035000CDE902101423C8221E2100201AF085FCCA
:100360000022D04BD0A104A823F0D6FF04A81AF095
:10037000ADFE0DE00120CFA110220023CDE9003217
:10038000CDE902101423C8221E2100201AF06DFCB2
:10039000601CC4B23FE14FF08041CD48006829F0B5
:1003A00065F81DD2CB49CA48006828F05FFF17D214
:1003B0000120C9A110220023CDE90032CDE90210AD
:1003C0001423C8223C2100201AF04FFC0022C94B04
:1003D000C9A104A823F0A0FF04A81AF077FE0DE03D
:1003E0000120C8A110220023CDE90032CDE902107E
:1003F0001423C8223C2100201AF037FC601CC4B230
:1004000009E107E1C6A01AF061FE4FF49650002200
:10041000C44BC5A1009004A823F07EFF04A81AF0E5
:1004200055FEC5A01AF052FEBDA01AF04FFE4FF4C3
:1004300096500022BB4BC1A1009004A823F06CFF92
:1004400004A81AF043FEBCA01AF040FE601CC4B21F
:10045000E1E0BE480068BE490978884201D0012029
:1004600000E00020054695B1BA48007878B1012037
:10047000B9A110220023CDE90032CDE902101423E6
:10048000C8225A2100201AF0F0FB601CC4B2B14807
:100490000570C0E0A2A01AF019FE4FF49650002299
:1004A000A04BB4A1009004A823F036FF04A81AF0D2
:1004B0000DFEA1A01AF00AFE99A01AF007FE4FF453
:1004C00096500022974BAFA1009004A823F024FF80
:1004D00004A81AF0FBFD98A01AF0F8FD601CC4B245
:1004E00099E00120AB4908705C481C380068AA49B3
:1004F0000978884204D0012003E08AE064E018E033
:100500000020064696B1A348007878B10120A3A147
:1005100010220023CDE90032CDE902101423C822B5
:10052000782100201AF0A1FB601CC4B29948067023
:1005300071E07BA01AF0CAFD4FF4965000229E4B4A
:100540009EA1009004A823F0E7FE04A81AF0BEFDC7
:1005500079A01AF0BBFD72A01AF0B8FD4FF49650C6
:100560000022954B99A1009004A823F0D5FE04A881
:100570001AF0ACFD70A01AF0A9FD69A01AF0A6FD52
:100580004FF496500022954B95A1009004A823F0BB
:10059000C3FE04A81AF09AFD67A01AF097FD60A0A8
:1005A0001AF094FD4FF4965000228C4B90A10090CD
:1005B00004A823F0B1FE04A81AF088FD5EA01AF08A
:1005C00085FD601CC4B226E001208D4908702348D7
:1005D000103800688B490978884201D0012000E07A
:1005E0000020074697B18648007878B1012086A19F
:1005F00010220023CDE90032CDE902101423C822D5
:10060000962100201AF031FB601CC4B27C480770B0
:1006100001E000E000BF00BF082C07DA0D480068C9
:10062000A0EB080049F64041884211D30024002085
:100630007C4908607C490860084950310860012005
:100640007A49C1F898017A49086040497431F1E06B
:1006500029E10000A0000020F00300203C0121421D
:1006600008A30020CCA50020E80300204D3239006B
:100670000CED00E00000FA050A000000A8020020CE
:100680000000344300004843B4F2D3A1CDB7CEC23A
:10069000B6C8BCECB2E2A3BA202020204F4B2020E9
:1006A0002000000000E070404D3130342053252EF2
:1006B00031660000B4F2D3A1CDB7CEC2B6C8BCEC4F
:1006C000B2E2A3BA202020204552524F520000002F
:1006D000B402002000002042C8C8B4B2CEC2B6C8DE
:1006E000BCECB2E2A3BA2020202020204F4B2020D7
:1006F00020000000008056404D3134302053252E1C
:1007000031660000C8C8B4B2CEC2B6C8BCECB2E212
:10071000A3BA2020202020204552524F5200000032
:10072000473931000000244047312058252E3166DA
:10073000204625640000000047393000473120582A
:100740002D252E3166204625640000001C01224222
:10075000940400200100002058D6E1CFDECEBBBCBF
:10076000ECB2E2A3BA202020202020204F4B2020F2
:100770002000000047312059252E3166204625648F
:1007800000000000473120592D252E3166204625D6
:1007900064000000020000209504002059D6E1CF3B
:1007A000DECEBBBCECB2E2A3BA2020202020202069
:1007B0004F4B2020200000000000F03F4731205A1E
:1007C000252E316620462564000000004731205A5E
:1007D0002D252E316620462564000000000034409F
:1007E00047312045252E3166204625640000000053
:1007F000473120452D252E31662046256400000016
:1008000003000020960400205AD6E1CFDECEBBBC08
:10081000ECB2E2A3BA202020202020204F4B202041
:1008200020000000940200209C02002000002242D0
:100830008481214208609F49C1F8B4019E48008824
:10084000B0F5F07F0DD19C484088B0F5A07F08D16D
:100850009A4800909848438802880021084619F079
:10086000F6FC95480088B0F5A07F0DD192484088ED
:10087000F02809D19148083000908F4843880288B9
:100880000021084619F0E3FC4CF2503005F0C6FC9C
:100890004CF2503005F0C2FC89488A4908608A4809
:1008A0008A49086000E0DBE400BF0CB0BDE8F081DD
:1008B0001CB500F0B0F905F037FC05F0E5FC41F699
:1008C0001F41092005F049FC4FF4E13005F060FDBF
:1008D00005F06AFB05F02EFA7D4C200C8DF8040023
:1008E000200A8DF80500E0B28DF806000020794955
:1008F00008609DF8040005F099FA9DF8050005F0E0
:1009000095FA9DF8060005F091FA012005F086FCA5
:1009100001207149C1F8B801704C200C8DF8040019
:10092000200A8DF80500E0B28DF806000020694924
:1009300008609DF8040005F079FA9DF8050005F0BF
:1009400075FA9DF8060005F071FA012005F066FCC5
:1009500001206149C1F8B801002008F008F904F04D
:1009600066FB00F01FFA5E490868804701F054F901
:100970004EF61671884209D05AA010210B46C822A3
:10098000CDE9001046213C2005F01BF803F087F864
:1009900008F0F0F95948016800200AF001FC0CF059
:1009A000F6FB18B300BF564800680028FBD10A20A8
:1009B00005F034FC00BF03F072F80028FBD14FF6BD
:1009C000FF7004F01BFB00231022194605200CF0D9
:1009D000D0FA58B14BA01021C8231A46CDE9001017
:1009E0005021052004F0EDFF00BFFEE70CF0E2FB14
:1009F000A8B14FF6FF7004F001FB10220021052082
:100A00000CF024FA58B144A01021C8231A46CDE9AD
:100A100000105021052004F0D4FF00BFFEE718F0BD
:100A200027FE0121042006F057F84FF40050ADF8DE
:100A3000040048208DF8070001A93D4805F090FD0D
:100A40001D480088B0F5F07F0DD11B484088B0F5F7
:100A5000A07F08D1194800901748438802880021D8
:100A6000084619F0F4FB14480088B0F5A07F0DD1BA
:100A700011484088F02809D11048083000900E48ED
:100A8000438802880021084619F0E1FB03E04FF497
:100A90007A7005F0C3FB274801780078401E254A8C
:100AA00010700029F3D10FF090FF12F00DFF00201D
:100AB0001CBD000000002242702100207CC70208FB
:100AC0004FB20108740E002017B20108780E002002
:100AD000FF7F1800B881214200802142FFFF1900EA
:100AE0004C00002057323551363420436865636B23
:100AF000204661696C656421000000004C02002002
:100B00003C012142466F6E7420557064617461200F
:100B10004661696C656421005468656D6520557097
:100B200064617465204661696C65642100000000A1
:100B300000080140000000200CB50020019000904A
:100B40006C48006840F480306A49086000BF69481A
:100B5000006800F4003000900198401C019000985B
:100B600018B90198B0F5A06FF1D16248006800F49F
:100B7000003010B10120009001E0002000900098AA
:100B8000012843D15C48006840F010005A490860D1
:100B90000846006820F0030008600846006840F03E
:100BA000020008605348406852494860084640685F
:100BB00048600846406840F48060486008464068E5
:100BC00020F47C1048600846406840F4E810486013
:100BD0000846006840F08070086000BF4548006823
:100BE00000F000700028F9D04248406820F003006F
:100BF000404948600846406840F00200486000BF35
:100C00003C48406800F00C000828F9D10CBD10B534
:100C1000FFF792FF10BD10B53648006840F00100A4
:100C20003449086008464068344908403149486002
:100C300008460068324908402E49086008460068A6
:100C400020F4802008600846406820F4FE004860D8
:100C50004FF41F008860FFF7DAFF4FF0006029496A
:100C6000086010BD10B5002100200022214B5B68F8
:100C700003F00C0121B1042906D0082928D107E08E
:100C8000214B224C236027E01F4B204C236023E0A4
:100C9000184B5B6803F47010164B5B6803F48032EA
:100CA000022303EB904022B9194B4343174C2360B6
:100CB0000DE0104B5B6803F4003323B1144B434346
:100CC000124C236003E0104B4343104C236003E0BD
:100CD0000D4B0E4C236000BF00BF064B5B68C3F397
:100CE00003130C4CE15C094B1B68CB40074C2360A1
:100CF00010BD000000100240002002400000FFF87C
:100D0000FFFFF6FE08ED00E000127A00040000206C
:100D100000093D0008000020704700BFFEE700BF4B
:100D2000FEE700BFFEE700BFFEE770477047704771
:100D3000704700000EB50121084605F0CDFE0C21DC
:100D4000002005F023FD00208DF8080010208DF80C
:100D500009000002019001208DF80A0001A807F0A7
:100D60005BFC28208DF8000001208DF80100002098
:100D70008DF8020001208DF80300684606F019F98D
:100D80000EBD08B50121242005F0A6FE4FF48050C9
:100D9000ADF8000004208DF803006946F84805F01E
:100DA000DFFB08BD10B5FFF7ECFFFFF7C3FF10BD79
:100DB00038B5044628208DF8000001208DF8010088
:100DC00000208DF802008DF80340684606F0F1F827
:100DD00038BD70B54FF4805007F084FC012846D12F
:100DE000000307F090FC142005F018FAE54800789D
:100DF000F8B9E5480068012839D1E448407801286D
:100E000035D1E349C86828F005FA0546E148C168CC
:100E1000284628F0CDF80446002128F08BF926D08A
:100E20000020DA4948700120DB490870DB4908706E
:100E30001DE0D5480068D0B9D4484078012816D1C3
:100E4000D349C86828F0E6F90546D248C168284663
:100E500028F0AEF80446002128F06CF907D00020F5
:100E6000CA4948700120CC490870CC49087070BD4F
:100E700010B515F098FD00F0E3FD0020C8490860AA
:100E80000DF0B8FD002404E0E1B200200CF028FCD5
:100E9000641C022CF8DB0020C249086000BF04E09B
:100EA0000021C14A42F82010401C0228F8DB002033
:100EB000BE490860BE490870BE4908706420BE493A
:100EC00008600020BD490860BDA01AF0FFF840F29C
:100ED000055000F045FF40F2015000F041FFBBA07B
:100EE0001AF0F4F810BD2DE9F04F97B03C2108A896
:100EF00023F029FDB849C86827F0C0FF04460D4615
:100F0000B549886827F0BAFF06460F46B2494868D7
:100F100027F0B4FF80468946AF49086827F0AEFF46
:100F2000824652460B46ADA108A8CDE90089CDE91D
:100F30000267CDE9044523F0EFF908A80FF04DF959
:100F40003C2108A823F0FFFCAC49C86827F096FFB5
:100F500004460D46A949886827F090FF06460F46CB
:100F6000A649486827F08AFF80468946A349086851
:100F700027F084FF82464FF4166052460B46A0A12C
:100F8000CDE90089CDE90267CDE90445069008A8BE
:100F900023F0C2F908A80FF020F901207B4948701E
:100FA00017B0BDE8F08F2DE9F04F97B09D4800686D
:100FB000924908609B48406848609A488068886009
:100FC0009848C068C8607148806B97490860974826
:100FD0000068974908609748006897490860774813
:100FE000006828F0DBF8954908606E48006894496D
:100FF00008606F480078934908709348006828F0AB
:1010000021F9044687480168204628F02FF90CD2C0
:101010008D48006828F016F9044682480168204689
:1010200028F055FA6C49086007E07E4908684FF0DF
:10103000804127F0BDFF684908608348006828F0B8
:1010400001F9044677484168204628F00FF90CD290
:101050007D48006828F0F6F804467248416820464A
:1010600028F035FA5C49486007E06E4948684FF05F
:10107000804127F09DFF584948607348006828F078
:10108000E1F80446674A9168704A906828F02AFAA5
:101090000546214628F0EAF90CD26B48006828F092
:1010A000D1F804465F488168204627F013FF4A497B
:1010B00088600CE05B4A9168644A906827F00AFFF8
:1010C00004464FF0804127F073FF4349886055483C
:1010D000C0684149C8603C2108A823F034FC3E495F
:1010E000C86827F0CBFE04460D463B49886827F0C8
:1010F000C5FE06460F463849486827F0BFFE8046C1
:1011000089463549086827F0B9FE82464FF4965063
:1011100052460B463AA1CDE90089CDE90267CDE9F7
:101120000445069008A823F0F7F808A80FF055F832
:1011300017B0BDE8F08F10B50446072C1FD2DFE8CA
:1011400004F004050E8B999A9B00A4E0012013493A
:101150000870FFF728FF00200F4908709BE000206F
:101160000E4908703A483B490860364800781049F3
:101170000870FFF7B8FE0020074908708BE089E08F
:1011800000080140BB0400203001214208A30020D8
:10119000C4B40020DCA900201800002019000020A1
:1011A000140400209C020020A80E0020B40E002091
:1011B000B7030020B803002084030020BC030020F4
:1011C0004732382058302059300000004D38342044
:1011D000582059205A204500E80E00204739322077
:1011E0005825352E3266205925352E3266205A254F
:1011F000352E3266204525382E326600D80E002066
:101200004730205825352E3266205925352E326636
:10121000205A25352E3266204525382E3266204646
:101220002564000060A500201C000020940200201E
:1012300020000020F00300202800002030000020C3
:10124000340000202C000020C00400209003002067
:101250001FB20108780E00200020FE490870FE49E8
:101260000860FE48FE490860FFF702FE0020FD49C5
:10127000087010E00FE00EE00020F6490870F64913
:101280000860F948F6490860FFF7F2FD0020F549CB
:10129000087000E000BF00BF10BD10B500BFF348EC
:1012A000806B811EF14830300AF0B5FA00F03FFC47
:1012B000C4B23B2C01D1002010BD0A2C01D00D2C52
:1012C00001D10120F8E700F019FC18B9E748806B5C
:1012D000022801D80020EFE7E1E72DE9FE4F814623
:1012E0000C469246E2A00068009009F10101DF4837
:1012F00030300AF090FA00BFBAF1000F06D1DB4897
:10130000806B811ED94830300AF085FA00F00FFC5E
:10131000C5B23CB99DF80000A84201D1012020E0EF
:1013200000201EE0012C07D19DF80100A84201D148
:10133000012016E0002014E0022C07D19DF80200E5
:10134000A84201D101200CE000200AE0032C07D1C3
:101350009DF80300A84201D1012002E0002000E036
:10136000002018B3C148D0F838B0FFF796FF012825
:1013700017D15946BD4830300AF04DFA002605E035
:1013800000F0D5FB01A98855701CC6B2082EF7DB0A
:10139000002101A826F0E2FE074626F019FFBDE86D
:1013A000FE8F5946B14830300AF035FA00F0A6FBFE
:1013B00018B9AE48806B022801D80020EFE79BE700
:1013C0002DE9F04F9DB04FF00009AA480168A748E9
:1013D00030300AF020FA00BFA448806B811EA34879
:1013E00030300AF018FA00F0A2FB00F0FF0ABAF160
:1013F000470F7DD1FFF751FF012803D109F101000B
:1014000000F0FF099C4800682130484570DC97488F
:10141000846B012200212046FFF75FFF0C90012220
:1014200011462046FFF759FF0D9000220221204669
:10143000FFF753FF0E90002203212046FFF74DFFD8
:101440000F902146894830300AF0E5F9342110A880
:1014500023F079FA89490F9828F044F8834627F059
:101460000DFD05460E460E9827F008FD07468846F6
:101470008349486827F002FDCDE90A0180490868E0
:1014800027F0FCFCCDE90278CDE90456CDE908014E
:10149000DDE90A01CDE90001AFF2C02110A8DDE9C4
:1014A000082322F039FF10A80EF097FE342110A86F
:1014B00023F049FA0F9827F0E1FCCDE90A010E98D4
:1014C00027F0DCFC05460E460D9827F0D7FC0746B2
:1014D00088460C9827F0D2FCCDE908014FF416603D
:1014E0000690DDE90A01CDE90078CDE9025600E079
:1014F0000FE0CDE90401AFF2F82110A8DDE90823DF
:1015000022F00AFF10A80EF068FE0120574948702B
:1015100026E000F0F3FA18B95448806B02281ED870
:1015200054480168514830300AF075F9342110A848
:1015300023F009FA5349886827F0A0FC05464FF4C8
:1015400016602A460B4650A1009010A822F0E4FE37
:1015500010A80EF042FE01204449487000E03BE72D
:1015600000BF1DB0BDE8F08F10B50EF01DFE15F0E8
:101570001AFA10BD2DE9F0478EB0002002900390BA
:1015800004900590824600BF38490122886B0221F1
:10159000FFF7A3FE0490BAF1000F0DD100210498CB
:1015A00027F064FF07D24FF07E51049827F05EFECB
:1015B000F8D24FF0010AC8E030493748006827F0F8
:1015C000F7FC044635480499006827F08BFF054670
:1015D000214627F04BFEEED204223149314800F07B
:1015E00096FB04222E4908392F4800F090FB2D4825
:1015F0000068002813DD2B4800682C4909688842E0
:101600000DDA202106A823F09EF9264828A10268B9
:1016100006A822F081FE06A80EF0DFFD02E0002001
:10162000204908602048006800284FDD1E480068F7
:1016300022490968884249DA202106A823F083F963
:1016400019481FA1026806A822F066FE06A80EF03F
:10165000C4FD3EE0190000201404002017B2010868
:10166000780E002018000020F9E3010808A30020EC
:1016700058595A451C000020280000200000A040B6
:1016800094A50020D80E00204730205A25352E3250
:101690006620462564000000D4040020D004002009
:1016A000301050009C0200209402002070040020A2
:1016B0004D313930205325640000000068040020BB
:1016C0004D313039205325640000000096A00EF003
:1016D00084FD98490022886B0321FFF7FEFD0590E9
:1016E00095A00EF07AFD95A00EF077FD96A00EF075
:1016F00074FDAFF234500EF070FD202106A823F0E7
:1017000022F9059827F0BAFB064600228F4B27F0F6
:10171000CBFA04460D468E4801688E48006827F0D3
:10172000D9FB07468C4927F0D5FB064627F0A6FBD8
:10173000804642460B4689A106A8CDE9004522F025
:10174000EBFD06A80EF049FD13E000F0D7F918B93B
:101750007848806B01280BD88448854908600020B0
:1017600074494870FFF700FF03208249087000E0C9
:101770000AE700BF0EB0BDE8F08700B587B06D483E
:10178000806B7D4908607D4800687D4908600020C5
:101790007C4908607C4800687C4908607C48006897
:1017A00027F0FCFC7B4908607B4800687B490860A7
:1017B0007B4800787B4908706F4800788DF80000FE
:1017C0006D480088000A8DF801006B480068000C25
:1017D0008DF8020068480068000E8DF8030072481A
:1017E00000788DF8040070480088000A8DF8050024
:1017F000634800788DF8060061480088000A8DF87B
:1018000007005F480068000C8DF808005C4800681D
:10181000000E8DF809005D4800788DF80A005B48DD
:101820000088000A8DF80B0058480068000C8DF8FD
:101830000C0056480068000E8DF80D0055480078E1
:101840008DF80E0053480088000A8DF80F005148AB
:101850000068000C8DF810004E480068000E8DF8EE
:1018600011004E4800788DF812004C480088000A9C
:101870008DF8130049480068000C8DF814004748A3
:101880000068000E8DF81500084600788DF81600E7
:101890003C4800788DF817003A480088000A8DF817
:1018A000180038480068000C8DF8190035480068A9
:1018B000000E8DF81A001B223C49684600F072FAAF
:1018C00007B000BD10B5042238492B4800F01FFABC
:1018D00002223649091D364800F019FA042233491C
:1018E000891D274800F013FA042230490A3127489D
:1018F00000F00DFA04222D490E31264800F007FAB7
:1019000004222A491231254800F001FA0122274910
:101910001631244800F0FBF90422244917311948F4
:1019200000F0F5F910BD00004D313039205332314F
:101930003000000008A30020473931004731205A09
:10194000352046393030000047393000000014405F
:10195000D8040020D00400200000A04047393220E5
:101960005A252E33662045252E33660017B201080E
:10197000780E0020180000201C0000209402002097
:101980002000002024000020F00300202800002078
:10199000BC030020300000209C0200203400002006
:1019A000B70300202C000020380000200010500059
:1019B0003A00002010B500205F49887002F06FF8EF
:1019C00018B15EA022F09CFC02E001205A49887008
:1019D00010BD00205849487088707047564880787C
:1019E00010B101205449487070475348407810B1F5
:1019F000002051494870704710B5044621464E48B2
:101A0000303009F008FF10BD10B54B48807880B128
:101A10004EA022F075FC4848816B51A022F070FC6A
:101A200050A022F06DFC4448C16B4DA022F068FC30
:101A300002E04DA022F064FC4FA022F061FC10BD3A
:101A400010B53D48303009F0DBFE00203A490870FF
:101A500010BD2DE9F04106468021002007F04DF928
:101A600005460321002007F048F904464E21304680
:101A700022F01AFE071E09D02021384622F014FE5B
:101A8000451C2A21384622F00FFE441E0D206070AE
:101A90000A20A070601BC21C384B294626483030F3
:101AA00009F047FD2946002007F017F921460020DC
:101AB00007F013F9BDE8F08110B51F48807868B9C8
:101AC0002F48006850B92F480168002009F068FBD2
:101AD000FFF770FF1848807800B910BD00BFFCE721
:101AE00010B514F02EFF0020134948700620264937
:101AF000087040F2055000F033F910BD0E48816BBC
:101B0000C06B814201D1012070470020FCE71CB569
:101B10006B46012201A90848303009F01DFC04463B
:101B200014B99DF804001CBD4FF0FF30FBE710B561
:101B3000FFF7EDFF10BD000008A30020534420690B
:101B40006E6974206661696C000000005344207067
:101B500072696E74696E6720627974652000000096
:101B6000256400002F0000004E6F74205344207045
:101B700072696E74696E67000A0000005C020020E2
:101B80003C0121424C0200201800002010B5002426
:101B90000120DD4908600020DC49C1F890010520E2
:101BA00004F076FAFF2004F073FA04460120D849C5
:101BB0000860204610BD10B504460120D2490860D7
:101BC0000020D249C1F89001012004F061FA2046BA
:101BD00004F05EFA0120CE49086010BD10B5012066
:101BE000C94908600020C949C1F89001062004F0E5
:101BF0004FFA0120C649086010BD10B50120C24946
:101C000008600020C149C1F89001042004F040FAA6
:101C10000120BF49086010BD10B500240120BA4959
:101C200008600020B949C1F89001902004F030FA12
:101C3000002004F02DFA002004F02AFA002004F01D
:101C400027FAFF2004F024FA44EA0024FF2004F0DD
:101C50001FFA04430120AE490860204610BD10B5AC
:101C600000BFFFF793FF00F001000028F9D110BD7D
:101C70002DE9F04106460C4617460120A2490860AE
:101C8000FFF7ACFF0020A149C1F89001022004F049
:101C9000FFF9C4F3074004F0FBF9C4F3072004F094
:101CA000F7F9E0B204F0F4F9002504E0705D04F007
:101CB000EFF9681C85B2BD42F8DB01209449086049
:101CC000FFF7CDFFBDE8F0812DE9F04107460E4654
:101CD0001446F0B2C0F58075AC4200DC254612E037
:101CE0002A4631463846FFF7C3FFAC4200D10BE02D
:101CF0002F442E44601B84B2B4F5807F02DD4FF484
:101D0000807500E02546EBE700BFBDE8F0812DE9D6
:101D1000F04106460C46174601207B49086000202A
:101D20007A49C1F89001032004F0B2F9C4F30740E6
:101D300004F0AEF9C4F3072004F0AAF9E0B204F00D
:101D4000A7F9002505E0FF2004F0A2F97055681CF2
:101D500085B2BD42F7DB01206D490860BDE8F08126
:101D600010B504462403012067490860FFF736FFD9
:101D7000FFF775FF00206549C1F89001202004F0AD
:101D800087F9C4F3074004F083F9C4F3072004F093
:101D90007FF9E0B204F07CF901205D490860FFF7AB
:101DA0005EFF10BD2DE9F04781460F4616464FEA0B
:101DB0001738C7F30B0ACAF58054A64200DC344634
:101DC00044E04FEA08314FF480525248FFF79FFF3A
:101DD000002508E00AEB05004E49085CFF2800D00A
:101DE00003E0681C85B2A542F4DB00BFA54216DA09
:101DF0004046FFF7B5FF002507E019F8050005EBA1
:101E00000A01444A5054681C85B2A542F5DB4FEAEA
:101E100008314FF480523F48FFF756FF04E0224656
:101E200039464846FFF750FFA64200D10FE008F1BF
:101E300001084FF0000AA1442744301B86B2B6F5D2
:101E4000805F02DD4FF4805400E03446B9E700BF04
:101E5000BDE8F08710B501202B490860FFF7BEFEF2
:101E6000FFF7FDFE00202949C1F89001C72004F0CA
:101E70000FF9012026490860FFF7F1FE10BD10B5EB
:101E800001202149086000202049C1F89001B920B3
:101E900004F0FEF801201E490860032004F09AF9BE
:101EA00010BD10B501201849086000201749C1F87D
:101EB0009001AB2004F0ECF80120154908600320E4
:101EC00004F088F910BD10B5044601200E490860E1
:101ED00000200E49C1F89001032004F0D9F8C4F3A2
:101EE000074004F0D5F8C4F3072004F0D1F8E0B2BD
:101EF00004F0CEF810BD10B5FF2004F0C9F810BDF5
:101F00000120034908607047A0812142000021425E
:101F100090012142F80E002000B585B0012148F261
:101F2000100004F0D9FD4FF4004004F039FD2D48B5
:101F300006F03CF9002000908DF804008DF80500B3
:101F40004FF4602002900020039001208DF81000D3
:101F50006946244806F051F90121224806F079F932
:101F6000204806F098F900BF1E4806F099F90028AD
:101F7000FAD11C4806F09EF900BF1A4806F09FF9F6
:101F80000028FAD105B000BD10B504460723012290
:101F90002146144806F0C9F90121124806F099F9C2
:101FA00000BF02210F4806F005FB0028F9D00D48BC
:101FB00006F022FA10BD2DE9F04107460C46002537
:101FC000002608E03846FFF7DFFF0544052004F04F
:101FD00025F9701CC6B2A642F4DBB5FBF4F080B262
:101FE000BDE8F081003C014010B504460120FA49EB
:101FF0000860204604F04CF810BD70B5054600247A
:102000000120F54908600020F449C1F8A0012846E4
:10201000FFF7EAFF0020FFF7E7FF04464FF6FF70E7
:1020200000EA04240020FFF7DFFF204484B2E4101C
:10203000C4F30B040120EA490860204670BD2DE975
:10204000FF4180460027002406E04046FFF7D5FF09
:102050002DF81400601C84B2072CF6DB002416E077
:10206000601C85B20FE03DF814003DF81510884261
:1020700007DD3DF814603DF815002DF814002DF82B
:102080001560681C85B2072DEDDB601C84B2062C40
:10209000E6DB0027012405E03DF81400384487B250
:1020A000601C84B2062CF7DB052097FBF0F086B2AB
:1020B000304604B0BDE8F0812DE9F04104460D46FC
:1020C000C8480078FFF7BBFF0646C7480078FFF70F
:1020D000B6FF074626802F800120BDE8F0817FB53E
:1020E00004460D4602A903A8FFF7E6FF064616B907
:1020F000002004B070BD694601A8FFF7DDFF064669
:102100000EB90020F5E7BDF80400BDF80C108842B8
:1021100006DCBDF80C10BDF804001E3081420CDB5B
:10212000BDF80C00BDF80410884236DCBDF8041080
:10213000BDF80C001E3081422FDABDF80000BDF85A
:102140000810884206DCBDF80810BDF800001E30FB
:1021500081420CDBBDF80800BDF8001088421CDC91
:10216000BDF80010BDF808001E30814215DABDF838
:102170000C10BDF80420881800EBD071C1F34F019A
:102180002180BDF80810BDF80020881800EBD07140
:10219000C1F34F0129800120ABE70020A9E770B50A
:1021A00004460D4616469148068004F10D018AB298
:1021B000193988B22B46294603F0DCF905F10D00E8
:1021C00083B2193881B22246204603F0D3F96A1C43
:1021D00091B2621C90B202F098FE6A1C91B2621E2B
:1021E00090B202F092FE6A1E91B2621C90B202F0AE
:1021F0008CFE6A1E91B2621E90B202F086FE06222A
:102200002946204603F02EFA70BD70B504460D46EF
:102210001646764806802946204602F076FE611C66
:1022200088B2294602F071FE681C81B2204602F095
:102230006CFE6A1C91B2621C90B202F066FE70BD28
:102240002DE9F0410446382003F00DFF322003F061
:10225000C1FF63487C380068002856D12CB164491E
:10226000A1F10A00FFF73BFF3DE06149A1F10A003F
:10227000FFF735FFB8B35E491639B1F92C0026F0E7
:10228000C9FF07465A491639888926F0DBFF804680
:1022900057481638416A404627F01CF8064639462A
:1022A00026F018FE054626F095FF5149163988811B
:1022B000B1F92E0026F0AEFF07464D491639C88AFF
:1022C00026F0C0FF80464A481638816A404627F00B
:1022D00001F80646394626F0FDFD054626F07AFF50
:1022E00043491639C8824248163890F8200000F059
:1022F000800038BBC0203E49163981F820000846CE
:1023000081898182C18AC1831CE03948163890F8DE
:10231000200000F0800050B13548163890F82000B9
:1023200020F080003249163981F820000AE00021AF
:102330002F4816388182C1834FF6FF702C49163919
:102340008881C882002003F08EFE2948163890F854
:10235000200000F08000BDE8F08138B5244916392E
:10236000486A244926F0B6FF044626F017FF00907D
:10237000042221496846FFF715FD1D491639886A70
:102380001C4926F0A7FF044626F008FF009004220F
:102390001949091D6846FFF705FD02221649083153
:1023A00013481630FFF7FEFC022213490A31104889
:1023B0001830FFF7F7FC01220F490C310C481A3096
:1023C000FFF7F0FC0A20009001220B490D3168460E
:1023D000FFF7E8FC38BD0000900121420080214257
:1023E000A081214280000020810000209600002072
:1023F0006200002020BCBE4C0060500038B50122B5
:10240000FE496846FFF783FC00980A2845D104225C
:10241000FA490D396846FFF77AFC009826F0FAFE73
:102420000446F74926F0C4FDF64948620422F34900
:1024300009396846FFF76BFC009826F0EBFE04466E
:10244000EF4926F0B5FDEF4988620222EB49491FAA
:10245000EC482C30FFF75BFC0222E849C91EE94832
:102460002E30FFF754FC0122E449491EE548303084
:10247000FFF74DFCE34890F8300030B19020E2497E
:102480000870D020E149087005E0D020DE490870CE
:102490009020DE490870012038BD0020FCE72DE9BE
:1024A000FC5F04460D4617461E46DDE90D9ADDF831
:1024B00030804FF47840D6490880D6A01021CDE96D
:1024C0000010D5490988A1F1A00B0BEBDB71C1F31A
:1024D0004F00D1494B880A888C2103F072FACFA0B3
:1024E0001021CDE90010CC490988A1F1A00B0BEB1C
:1024F000DB714910503188B2C7494B880A888C215A
:1025000003F05FFAC6A01021CDE90010C249098886
:10251000A1F1A00B0BEBDB71C1F34F00BE494B885F
:102520000A88A02103F04DFABEA01021CDE90010C9
:10253000B9490988A1F1A00B0BEBDB7149105031AF
:1025400088B2B5494B880A88A02103F03AFAB6A0B0
:102550001021CDE90010B0490988A1F1A00B0BEBC7
:10256000DB71C1F34F00AC494B880A88B42103F0FA
:1025700028FAAEA01021CDE90010A7490988A1F1E1
:10258000A00B0BEBDB714910503188B2A2494B888C
:102590000A88B42103F015FAA5A01021CDE9001096
:1025A0009D490988A1F1A00B0BEBDB71C1F34F0032
:1025B00099494B880A88C82103F003FA9DA010218D
:1025C000CDE9001094490988A1F1A00B0BEBDB7158
:1025D0004910503188B290494B880A88C82103F0CD
:1025E000F0F995A01021CDE900108B490988A1F1DF
:1025F000A00B0BEBDB71C1F34F0087494B880A88B6
:10260000DC2103F0DEF91020834900900988A1F154
:10261000A00B0BEBDB714910183188B20423224662
:102620008C2103F025F910207B4900900988A1F145
:10263000A00B0BEBDB714910683188B204232A46EA
:102640008C2103F015F91020734900900988A1F13D
:10265000A00B0BEBDB714910183188B204233A460A
:10266000A02103F005F910206B4900900988A1F121
:10267000A00B0BEBDB714910683188B204233246A2
:10268000A02103F0F5F81020634900900988A1F11A
:10269000A00B0BEBDB714910183188B204234246C2
:1026A000B42103F0E5F810205B4900900988A1F1FE
:1026B000A00B0BEBDB714910683188B204234A464A
:1026C000B42103F0D5F81020534900900988A1F1F6
:1026D000A00B0BEBDB714910183188B20423524672
:1026E000C82103F0C5F810204B4900900988A1F1DA
:1026F000A00B0BEBDB714910683188B20423C821B1
:102700000F9A03F0B5F81020434900900988A1F111
:10271000A00B0BEBDB714910383188B20423DC21AC
:10272000109A03F0A5F8BDE8FC9F00B595B0002015
:1027300010900A9010901F20354908804FF6FF70C6
:102740003F49088002F05AFC4FF478403049088035
:102750004FF6FF7002F052FC00202D4908803948E6
:1027600000681021CDE900102B480088A03809909E
:1027700000EBD070C0F34F006423A0222821089002
:1027800003F01FF94FF4784214210846FFF707FDC4
:1027900000201C4981F820004862E8E3194840689D
:1027A0000990012009998847164890F8200000F008
:1027B000C000402871D100200A90124890F82000F3
:1027C00020F040000F4981F820000846818911AAB5
:1027D000109822F820100B48C18A109802EB800054
:1027E00041801098401CC0B21090109801282DD044
:1027F00002283CD0032851D0042825E00D60500069
:1028000020BCBE4C4C000020800000208100002035
:102810009600002078313A007021002079313A008A
:1028200078323A0079323A0078333A0079333A0014
:1028300078343A0079343A006661632069733A006B
:10284000980000208400002010D142E04FF6FF7273
:1028500014210846FFF7A3FCFB480088143880B217
:102860004FF4784214210990FFF799FC6FE3F64882
:102870000088143880B24FF6FF7214210990FFF7D8
:102880008EFCF1484088143880B24FF478420146FB
:1028900009901420FFF783FC59E359E3EA48408884
:1028A000143880B24FF6FF72014609901420FFF7EA
:1028B00076FCE5484088143880B20990E2480088E8
:1028C000143880B24FF4784208900999FFF767FCFA
:1028D0003DE3BDF84400BDF84810401A09900028B7
:1028E00001DB099801E0099840420D90BDF84610BF
:1028F00011A8C088081A0990002801DB099801E096
:10290000099840420C900D9840430D900C9840431C
:102910000C90DDE90C100844059025F04FFFCDE93F
:10292000060125F0F5FBCDE9080125F003FF80B293
:102930000F90BDF84C00BDF85010401A09900028C7
:1029400001DB099801E0099840420D9011A84189E6
:10295000C089081A0990002801DB099801E009984C
:1029600040420C900D9840430D900C9840430C90C1
:10297000DDE90C100844059025F020FFCDE90601A3
:1029800025F0C6FBCDE9080125F0D4FE80B20E90FB
:102990000E9826F057FC09900F9826F053FC0890EB
:1029A000099926F005FB0B900B9826F067FA4FF07B
:1029B0006632A64BCDE9080125F014FF0DD30B9824
:1029C00026F05CFAA24AA34BCDE9080126F044F8B0
:1029D00003D30F9808B10E98E8BB002010909A48D6
:1029E0004088143880B2099097480088143880B223
:1029F0004FF6FF7208900999FFF7D1FB4FF4784228
:102A000014210846FFF7CBFB93490B9826F062FC94
:102A1000089026F0DFFB80B211A90990C989BDF8A2
:102A2000502011AB5B89CDE90132CDE90310BDF82F
:102A30004C00009011A8C0880890BDF8480007908D
:102A4000BDF846000690BDF84400059006A90EC9E1
:102A5000FFF725FD8BE2FFE7BDF84400BDF84C1001
:102A6000401A0990002801DB099801E009984042CA
:102A70000D90BDF8461011A84089081A0990002849
:102A800001DB099801E0099840420C900D98404301
:102A90000D900C9840430C90DDE90C100844059013
:102AA00025F08CFECDE9060125F032FBCDE90801C9
:102AB00025F040FE80B20F90BDF84800BDF85010E0
:102AC000401A0990002801DB099801E0099840426A
:102AD0000D9011A8C188C089081A0990002801DB4F
:102AE000099801E0099840420C900D9840430D90E0
:102AF0000C9840430C90DDE90C100844059025F03B
:102B00005DFECDE9060125F003FBCDE9080125F0C6
:102B100011FE80B20E900E9826F094FB09900F984B
:102B200026F090FB0890099926F042FA0B900B983A
:102B300026F0A4F94FF06632444BCDE9080125F0A8
:102B400051FE09D30B9826F099F9414A414BCDE942
:102B5000080125F081FF3DD2002010903A484088BE
:102B6000143880B2099038480088143880B24FF683
:102B7000FF7208900999FFF712FB4FF47842142175
:102B80000846FFF70CFB34490B9826F0A3FB08908E
:102B900026F020FB80B211A90990C989BDF8502008
:102BA00011AB5B89CDE90132CDE90310BDF84C00D2
:102BB000009011A8C0880890BDF848000790BDF8A3
:102BC00046000690BDF84400059006A90EC9FFF71F
:102BD00066FCCCE1BDF84800BDF84C10401A0990E5
:102BE000002801DB099801E0099840420D9011A8E6
:102BF000C1884089081A0990002801DB099801E082
:102C0000099840420C900D9840430D900C98404319
:102C10000C90DDE90C100844059025F0CFFDCDE9BE
:102C2000060125F075FACDE9080125F083FD80B293
:102C30000F90BDF84400BDF85010401A09900028CC
:102C40000CDB09980CE00000702100206666EE3F66
:102C5000CDCCCCCCCCCCF03F0000C842099840424F
:102C60000D90BDF8461011A8C089081A09900028D7
:102C700001DB099801E0099840420C900D9840430F
:102C80000D900C9840430C90DDE90C100844059021
:102C900025F094FDCDE9060125F03AFACDE90801C9
:102CA00025F048FD80B20E900E9826F0CBFA0990E0
:102CB0000F9826F0C7FA0890099926F079F90B9039
:102CC0000B9826F0DBF84FF06632BE4BCDE90801D9
:102CD00025F088FD09D30B9826F0D0F8BA4ABB4BF3
:102CE000CDE9080125F0B8FE3DD200201090B8488B
:102CF0004088143880B20990B5480088143880B2F2
:102D00004FF6FF7208900999FFF749FA4FF478429D
:102D100014210846FFF743FAAE490B9826F0DAFA79
:102D2000089026F057FA80B211A90990CA89BDF817
:102D3000501011AB5B89CDE90131CDE90320BDF81D
:102D40004C00009011A8C0880890BDF8480007907A
:102D5000BDF846000690BDF84400059006A90EC9CE
:102D6000FFF79DFB03E1BDF84800BDF84410401A91
:102D7000079026F04FFA0990954800882838079068
:102D800026F048FA0890099926F012F9924948620B
:102D9000BDF84800BDF844100844049026F03AFA03
:102DA00005908D48406A01460490059826F092FAF5
:102DB000079087480088059026F044FA0690079906
:102DC00026F090FB4FF08041089026F0F1F8099032
:102DD00026F0E4F900B28049888511A84089BDF841
:102DE0004610401A079026F015FA09907848408856
:102DF0002838079026F00EFA0890099926F0D8F89E
:102E00007549886211A84089BDF8461008440490AD
:102E100026F000FA05907048806A014604900598F3
:102E200026F058FA07906A484088059026F00AFA7A
:102E30000690079926F056FB4FF08041089026F047
:102E4000B7F8099026F0AAF900B26349C885084688
:102E5000406A079026F0A2F90890002801DB089844
:102E600001E00898404202280DDC5B48806A079028
:102E700026F094F90990002801DB099801E00998EF
:102E80004042022842DD002010905148408814380A
:102E900080B209904E480088143880B24FF6FF7215
:102EA00008900999FFF77BF94FF4784214210846FE
:102EB000FFF775F949A01021CDE90010444840887A
:102EC000099043480088089002461A212820099B4F
:102ED00002F077FD404890F8300008B9012000E08A
:102EE00000203D4981F83000084690F8300030B1AC
:102EF00090203F490870D0203E49087005E0D0205E
:102F00003B49087090203B49087030E01F203A4947
:102F100008804FF6FF7002F071F838A01021CDE95B
:102F200000102B480088B838099000EBD070C0F32F
:102F30004F000B46B8226E21089002F042FD4FF47C
:102F40007A7003F06BF9FFF708FA15B000BD00BF07
:102F50000A2003F063F90A98401C80B20A900A988C
:102F6000B0F57A7F02DDFFF749FA01E000BF15E412
:102F700000BF00BFE9E708B50121082003F0ACFD60
:102F80004FF40070ADF8000048208DF8030069464A
:102F9000204803F0E5FA03F007F80F491631A1F1D4
:102FA0000A00FFF789F8FFF729FA08B1002008BDE9
:102FB0004FF6FF7002F022F8FFF7B7FBFFF71EFA9B
:102FC0000120F4E76666EE3FCDCCCCCCCCCCF03F14
:102FD000702100200000C8424C0000205450204EB8
:102FE00065656420726561646A7573742100000010
:102FF000800000208100002096000020546F75633F
:10300000682053637265656E2041646A757374202D
:103010004F4B2100000C014045F255520B4B1A60FA
:103020001A46506091604AF6AA221A604CF6CC42C9
:103030001A60704700B540F271210620FFF7ECFFDF
:1030400000BD4AF6AA2001490860704700300040E0
:1030500001460020012900D011B9FE4B197000E093
:1030600026207047FC49496821F0FF01FA4A516067
:1030700011464968014351607047024605E0F64831
:10308000416B01F0450000B100E0F8E700BF01F03E
:10309000040020B10420F04B98630320704701F036
:1030A000010018B10120EC4B9863F7E7EA4800698A
:1030B000904201D01020F1E740F2FF50E64B9863B8
:1030C0001846406908231840C0B2E7E710B5E24B44
:1030D0009A60DB686FF30A03DF4CE3602346DB682A
:1030E00000F03F042343DC4CE3602346DB6843EA03
:1030F0008113E3602346DB68E3602346DB6843F427
:103100008063E36010BD30B5D34C606221F07E4433
:10311000D14DAC622C46E46A24F0F704EC622C46F4
:10312000E46A44EA0214EC622C46E46AEC622C463F
:10313000E46A03F0010544EA4504C74DEC622C46FD
:10314000E46A44F00104EC6230BDFCB507460D466C
:103150000026002400200090019008220121102068
:10316000FFF7B4FF1020FFF788FF04460CB120469C
:10317000FCBD3A0401213720FFF7A8FF3720FFF7F5
:103180007CFF04460CB12046F2E70123032208210C
:10319000B248FFF7B8FF002201213320FFF796FF66
:1031A0003320FFF76AFF04460CB12046E0E70DE04C
:1031B000A948406B00F4001040B1A7488030006877
:1031C0004DF82600761C022E00D306E0A248406B84
:1031D00040F22A6108400028EAD000BF9E48406BB8
:1031E00000F0080038B19C48806B40F008009A4914
:1031F00088630420BCE79848406B00F0020038B1B7
:103200009548806B40F00200934988630220AFE745
:103210009148406B00F0200038B18F48806B40F03F
:1032200020008D4988630620A2E78B48406B00F49C
:10323000007038B18848806B40F40070864988631C
:10324000072095E740F2FF50834988630098000605
:10325000009901F47F4140EA0120009901F47F01C7
:1032600040EA1120009940EA116068600198000668
:10327000019901F47F4140EA0120019901F47F01A5
:1032800040EA1120019940EA1160286020466FE76A
:103290007CB50546002400200090019000260DB169
:1032A000022600E000266C48406900F0007008B17A
:1032B0000E207CBD6A49098888B26946FFF745FF40
:1032C00004460CB12046F4E7019800F48020C0B118
:1032D00063480088020401213720FFF7F7FE3720FA
:1032E000FFF7CBFE04460CB12046E2E7324601214F
:1032F0000620FFF7EBFE0620FFF7BFFE0446204640
:10330000D7E72520D5E730B5044600255548007895
:10331000032801D1272030BD5248007838B15148E8
:103320000078012803D04F480078022818D1022CD9
:1033300001D32720EFE7E0B2FFF7AAFF05467DB9EA
:103340004548406820F4C0504349486008464068FA
:10335000A1B240EAC1204049486008464068486040
:103360002846D8E710B50446224601210720FFF77A
:10337000ADFE0720FFF781FE10BDF0B5014600202D
:103380000022384B1B7881F85630354B1B88A1F84A
:103390005430354B1B681A0E93090B70C2F383032C
:1033A0004B7002F003038B702F4B1B68C3F3074273
:1033B000CA702D4B1B88C3F307220A712A4B1A7857
:1033C0004A715B681A0E1301CB80274B5B68C3F30D
:1033D0000742CB8843EA1213CB8002F00F030B7233
:1033E000214B9B88C3F30722D3094B72C2F380138E
:1033F0008B72C2F34013CB72C2F300130B73002322
:103400004B73184B1B783BB1164B1B78012B03D029
:10341000144B1B78032B5DD193071B0D0B61124BD3
:103420001A790B6943EA82030B610F4B9B681A0EF2
:103430000B6943EA92130B61C2F3C2030B7502F0EE
:1034400007034B75084B9B68C3F3074253098B7501
:103450000CE000009000002000800140FFFF0F0002
:103460008C00002088000020F81E0020C2F3820398
:10347000CB7593075B0F0B76FD4B1B89C3F30722BC
:103480000B7E43EAD2130B760B695B1C0024C1E967
:1034900012340B7E9B1C012404FA03F3DC17D1E9E0
:1034A0001256A5FB037C06FB03C305FB0433C1E9ED
:1034B00012730C7A0123A3400B650024D1E9126535
:1034C0000B6DA6FB037C05FB03C306FB0433C1E9BC
:1034D00012732EE0E74B1B78022B2AD1E44B1A79AA
:1034E00093069B0A0B61E24B9B681A0E0B6943EA39
:1034F00002230B61DE4B9B68C3F307420B69134346
:103500000B61DB4B1B89C3F307220B695B1C4FF478
:103510000074A3FB04464FF480630025A4FB037CE6
:1035200006FB03C304FB0533C1E912734FF40073B8
:103530000B65C2F3801301F8193F93065B0E4B70C5
:10354000CB4B1A7A4B7843EAD2134B7002F07F03CD
:103550008B70C74BDB681A0ED309CB70C2F34113D3
:103560000B71C2F382034B7193071B0F8B71C04B1E
:10357000DB68C3F307428B7943EA92138B71C2F382
:103580004013CB7100230B7202F001034B72B84B56
:103590009B89C3F30722D3098B72C2F38013CB72CA
:1035A000C2F340130B73C2F300134B73C2F38103D6
:1035B0008B7302F00303CB73AD4B1A7B53080B7470
:1035C00001234B74AC4B1B681A0ECA741939AA4BF1
:1035D0001B68C3F307421402CC85A74B1B88C3F3B7
:1035E0000722CB8D1343CB85A34B1A7814060C63AB
:1035F0005B681A0E0B6B43EA02440C639E4B5B68DC
:10360000C3F307420B6B43EA02240C639A4B9B887B
:10361000C3F307220B6B13430B63974B1A793423C5
:103620005A54954B9B681A0E35235A54924B9B68FB
:10363000C3F3074214068C638F4B1B89C3F3072225
:103640008B6B43EA02448C638B4B1A7A8B6B43EA95
:1036500002248C63884BDB681A0E8B6B13438B63DD
:10366000854BDB68C3F307423C235B5C43EA1214DF
:103670003C235C5413071C0DCC877F4B9B89C3F301
:103680000722CB8F1343CB877B4B1A7B54084023F5
:103690005C54012441235C54F0BD10B5002042F27B
:1036A000107205E0754B596B01F0450303B103E05F
:1036B000131EA2F10102F5D100BF12B101F0040303
:1036C0003BB103206D4B9B6B43F004036B4CA36336
:1036D00010BD01F0010333B10120684B9B6B43F037
:1036E0000103664CA36340F2FF53644CA36300BF25
:1036F000EEE770B503460C46002505E05F48426BD7
:1037000002F0450000B100E0F8E700BF02F004005D
:1037100038B15A48806B40F00400584EB063032023
:1037200070BD02F0010038B15448806B40F00100D8
:10373000524EB0630120F3E750480069984201D02F
:103740001020EDE740F2FF504C4EB0633046416927
:1037500001F4604018B9080C20802846E0E701F425
:10376000005008B11320DBE701F4804008B11020BD
:10377000D6E701F4004008B10F20D1E72846CFE793
:1037800018B50024012000903C48006800F00300B8
:1037900008B9252018BD37480078042817D0002222
:1037A00003210220FFF792FCFFF777FF04460CB1DC
:1037B0002046EFE7314840692F4908602F4880696B
:1037C00048602E48C06988602C48006AC860294853
:1037D000007858B127480078012807D0254800789C
:1037E000062803D02348007802280CD100220121AA
:1037F0000320FFF76BFC69460320FFF77AFF0446BE
:103800000CB12046C6E71B48007803280CD1BDF850
:103810000000020401210320FFF758FCFFF73DFFE1
:1038200004460CB12046B5E71248007804281DD0A4
:10383000BDF8000012490860BDF800000204032131
:103840000920FFF743FCFFF728FF04460CB1204690
:10385000A0E70A484069064908600848806948604E
:103860000648C06988600548006AC860002091E782
:10387000F81E002088000020081F00200080014062
:103880008C00002005E0FE48416B01F0450000B1CE
:1038900000E0F8E700BF01F0040038B1F848806BA1
:1038A00040F00400F64A90630320704740F2FF5056
:1038B000F34A90630020F8E710B5002042F210723E
:1038C00005E0EF4B596B01F0450303B103E0131E14
:1038D000A2F10102F5D100BF12B101F004033BB126
:1038E0000320E74B9B6B43F00403E54CA36310BD3F
:1038F00001F0400333B10020E14B9B6B43F04003E8
:10390000DF4CA36300BFF2E7002242F2107105E032
:10391000DB48406B00F0800000B103E0081EA1F11D
:103920000101F5D100BF09B90320704740F2FF50F3
:10393000D34B98631046F8E72DE9F04300270024A5
:1039400000260025A046A1460020CD494860084633
:1039500040684860084640684860084640684860DB
:10396000084640684860084640684860B220FFF753
:1039700079FB0320C24908600846406840F4807023
:10398000486000BF0BE0002211461046FFF79EFB87
:10399000FFF7BAFF044604B903E0781CC7B24A2F08
:1039A000F1DB00BF14B12046BDE8F0834FF4D572BF
:1039B00001210820FFF78AFBFFF77EFF044624B9A8
:1039C0000120B04908704FF08049002201213720C2
:1039D000FFF77CFB3720FFF750FB04467CBB20E061
:1039E000002201213720FFF771FB3720FFF745FB4D
:1039F00004460CB12046D7E7A34849EA000201215A
:103A00002920FFF763FBFFF73DFF04460CB120467A
:103A1000CAE79B484669012080EAD67080F0010819
:103A20006D1CB8F1000F03D14FF6FF708542D7D35C
:103A30004FF6FF70854203D31B242046B4E707E00E
:103A400006F08040061E28D002208E49087024E02F
:103A500012E08E4A01210846FFF738FBFFF712FFFC
:103A600004460CB120469FE785484669012080EA5C
:103A7000D67080F001086D1CB8F1000F03D14FF62D
:103A8000FF708542E5D34FF6FF70854202D31B24B9
:103A9000204689E703207B490870204684E71CB54F
:103AA00000240121342003F017F8012140F20240E4
:103AB00003F005F84FF4F850ADF8040018208DF825
:103AC000070003208DF8060001A9714802F048FDA7
:103AD0000420ADF8040001A96E4802F041FD4FF446
:103AE0000040ADF8040048208DF8070001A96A489D
:103AF00002F036FD04F010FE31208DF800000220A7
:103B00008DF8010001208DF802008DF80300684651
:103B100003F04FFAFFF710FF044614B9FFF730FE29
:103B200004461CB95D48FFF728FC044634B95B49DC
:103B3000B1F854100804FFF715FC04461CB9012025
:103B4000FFF7E1FB04461CB14E480078032806D17C
:103B50000620FFF787FA0120FFF77AFA044620468D
:103B60001CBD4748006820F003004549086000205C
:103B7000704710B54A4B1B6843F47043484C2360B0
:103B8000474B40331B6823F00103454C403423600E
:103B900023461B6847F6F074A343414C403423602E
:103BA00023461B6843EA0213236023461B682360F5
:103BB00023461B68236023461B6843F08003236071
:103BC00023461B6843F40073236023461B6843F4B9
:103BD0000063236023461B6843F4005323608B0873
:103BE000241D2360264B8033241D2360231D186071
:103BF0002B4B40331B6843F00103294C40342360B6
:103C000010BD0146002002E04910421CD0B201293B
:103C1000FAD170472DE9F04F06460F4614464FF093
:103C20000008C1463546C24616B92620BDE8F08FC9
:103C300000201349C86213480078022801D1040209
:103C40007F0A00231A4619461648FFF75CFA0C480B
:103C5000406900F0007008B10E20E7E7002C2CDD71
:103C6000B4F5006F29DC601E204030BB2046FFF712
:103C7000C8FF8346224601211020FFF727FA13E0F0
:103C80000080014088000020000010800080FF803C
:103C9000001001400014014000080140181F0020DE
:103CA00004040240FFFF0F001020FFF7E6F98046F2
:103CB000B8F1000F03D04046B8E72620B6E701234D
:103CC0005A462146F748FFF71EFA3A4601211120CD
:103CD000FFF7FCF91120FFF7D0F98046B8F1000F8B
:103CE00001D04046A2E7F048007800285FD112E0FA
:103CF000EE48406B00F4004068B14FF0000906E068
:103D0000EA488030006845F8290009F10109B9F155
:103D1000080FF5D32035E548406B40F22A61084092
:103D20000028E5D0E148406B00F0080038B1DF48DA
:103D3000806B40F00800DD498863042076E7DB48AB
:103D4000406B00F0020038B1D848806B40F00200B0
:103D5000D6498863022069E7D448406B00F0200010
:103D600038B1D248806B40F02000D04988630620EB
:103D70005CE7CE48406B00F4007038B1CB48806BF4
:103D800040F40070C949886307204FE704E0C74842
:103D9000D0F8800028602D1DC448406B00F400104E
:103DA0000028F4D140F2FF50C049886339E0BE4892
:103DB0000078012835D10020BD490870BD49087040
:103DC000BD490870B948C06B40F22A310843B74971
:103DD000C8630846C06A40F00800C8620022214655
:103DE0003046FFF7C6FEDFF8D4A201E0AAF1010ACF
:103DF000B348006800F4005040B9AF48007828B9D3
:103E0000AB48007810B9BAF1000FEFD1BAF1000F4A
:103E100001D104200AE7A648007810B1A44890F820
:103E20000080404602E72DE9F84F83468846144655
:103E30001D460026B1465F46B24600209B49C86237
:103E4000A0480078022802D104024FEA5828002333
:103E50001A4619469348FFF756F99448406900F00E
:103E6000007010B10E20BDE8F88F002C15DDB4F500
:103E7000006F12DC601E204078B92046FFF7C1FEBB
:103E80000090224601211020FFF720F91020FFF7B3
:103E9000F4F806461EB13046E5E72620E3E7012D9B
:103EA0007ED905FB04F0B0F1007F01D32620DAE7CC
:103EB00005FB04F101237B48009AFFF724F94246F1
:103EC00001211220FFF702F91220FFF7D6F806466B
:103ED0000EB13046C7E77448007800287ED112E062
:103EE0007248406B00F4004068B14FF0000906E0F2
:103EF0006E488030006847F8290009F10109B9F1DE
:103F0000080FF5D320376948406B40F22A3108404A
:103F10000028E5D06548406B00F0080038B16348E0
:103F2000806B40F008006149886304209BE75F488C
:103F3000406B00F0020038B15C48806B40F002003A
:103F40005A49886302208EE75848406B00F02000F1
:103F500038B15648806B40F02000544988630620F1
:103F600081E75248406B00F4007038B14F48806BD5
:103F700040F400704D498863072074E704E04B4823
:103F8000D0F8800038603F1D4848406B00F40010B6
:103F90000028F4D14548406B00F48070C8B100E0BF
:103FA0005AE04848007838B146480078012803D0E4
:103FB0004448007802280CD1002201210C20FFF790
:103FC00085F80C20FFF759F8064616B130464AE747
:103FD00004E040F2FF50354988633DE03248007804
:103FE000012839D100203249087001203149087078
:103FF0000020314908702D48C06B40F22A31084337
:104000002A49C8630846C06A40F00800C86205FB38
:1040100004F100225846FFF7ACFDDFF8A0A001E054
:10402000AAF1010A2648006800F4005010B9BAF15C
:10403000000FF5D1BAF1000F01D1042013E700BF42
:104040001D48007818B91A4800780028F8D0184898
:10405000007808B116480678304604E71CB50446D7
:1040600000200190009018480088020401210D20D2
:10407000FFF72CF80D48406B009002E00B48406BB6
:104080000090009800F045000028F7D0009800F05C
:104090000100D8B10548806B40F0010003498863F6
:1040A00001201CBDFFFF0F00900000200080014098
:1040B000920000209100002093000020FFFF0200EA
:1040C00000040240880000208C000020009800F0CE
:1040D000040038B1FB48806B40F00400F949886364
:1040E0000320DEE7F74800690D2801D01020D8E74B
:1040F00040F2FF50F34988630846406901900198F7
:10410000C0F3432020700020CBE72DE9F74F84B0A7
:1041100083461546002600200390029000240027C5
:10412000019080460090AA46D946BBF1000F03D10A
:10413000262007B0BDE8F08F0020E249C8620023C6
:104140001A461946E048FEF7DEFFDE48406900F0F7
:10415000007008B10E20ECE7DC480078022803D19B
:1041600005020598400A0590002D15DDB5F5006F94
:1041700012DC681E284078B92846FFF742FD0390FC
:104180002A4601211020FEF7A1FF1020FEF775FF3F
:1041900006461EB13046CCE72620CAE7CC48008848
:1041A000020401210D20FEF791FF0D20FEF765FFAF
:1041B00006460EB13046BCE7C24840690190C24C89
:1041C00011E0641EC2480088020401210D20FEF7A0
:1041D0007DFF0D20FEF751FF06460EB13046A8E7E1
:1041E000B84840690190019800F4807008B9002C2B
:1041F000E7D10CB929209CE701211820059AFEF788
:1042000065FF1820FEF739FF06460EB1304690E7ED
:104210000020B049087000232946AB48039AFEF7F6
:1042200072FFAD480078002879D137E0A548406B8F
:1042300000F4804090B3AAEB070020281ED2AAEB1E
:10424000070000F0030018B9AAEB0700800803E09C
:10425000AAEB07008008401C00904FF0000809E01E
:1042600098498031D9F80000086008F1010809F187
:1042700004093F1D0098804510D2F1E74FF0000877
:1042800006E059F828008F498031086008F10108DC
:10429000B8F1080FF5D309F1200920378948406BA0
:1042A00040F21A6108400028C0D08648406B00F0F8
:1042B000080038B18348806B40F00800814988636A
:1042C000042036E77F48406B00F0020038B17D489B
:1042D000806B40F002007B498863022029E779481F
:1042E000406B00F0100038B17648806B40F0100051
:1042F0007449886305201CE77248406B00F4007025
:1043000040B17048806B40F400706E4988630720AC
:104310000FE704E040F2FF506A4988633FE06E48CF
:10432000007801283BD100206C4908706949087069
:104330006B4908706348C06B40F21A310843614909
:10434000C863012229465846FFF713FC5D48C06A3E
:1043500040F008005B49C862624C00E0641E62489D
:10436000006800F4005008B9002CF7D11CB9FFF721
:1043700096FB0420DDE65B4C00E0641E58480078A4
:1043800020B95648007808B9002CF6D10CB90420A1
:10439000CFE65248007810B150480078C9E640F2A4
:1043A000FF504849886302A8FFF758FE064603E01D
:1043B00002A8FFF753FE06463EB99DF808000728FD
:1043C000F6D09DF808000628F2D03046B1E62DE977
:1043D000FF4F83B014461D46002600200290019036
:1043E000002780468146009005FB04FBDDF80CA009
:1043F000DDF80CA0BAF1000F03D1262007B0BDE80C
:10440000F08F00202F49C86200231A4619462E4813
:10441000FEF779FE2B48406900F0007008B10E20CD
:10442000ECE72A480078022803D104020498400AE5
:104430000490002C15DDB4F5006F12DC601E2040E6
:1044400078B92046FFF7DDFB0290224601211020BB
:10445000FEF73CFE1020FEF710FE06461EB1304669
:10446000CCE72620CAE7012D72D905FB04F0B0F194
:10447000007F01D32620C1E71448007838B11348E3
:104480000078012803D01148007802282ED1104866
:104490000088020401213720FEF718FE3720FEF7BE
:1044A000ECFD06460EB13046A8E72A46012117204A
:1044B000FEF70CFE1720FEF7E0FD0646B6B13046CB
:1044C0009CE7000000800140FFFF0F0088000020F3
:1044D0008C0000209100002090000020920000201D
:1044E00093000020FFFF0200000402400121192078
:1044F000049AFEF7EBFD1920FEF7BFFD06460EB14C
:1045000030467BE705FB04F10023FA48029AFEF7E8
:10451000FAFDF9480078002876D13AE0F748406B78
:1045200000F48040A8B3ABEB0800202820D2ABEB0E
:10453000080000F0030018B9ABEB0800800803E0A6
:10454000ABEB08008008401C00904FF000090BE026
:10455000BFE0EA498031DAF80000086009F101099A
:104560000AF1040A08F104080098814511D2F0E725
:104570004FF0000906E05AF82900E0498031086050
:1045800009F10109B9F1080FF5D30AF1200A08F180
:104590002008DA48406B40F21A3108400028BDD0AC
:1045A000D648406B00F0080038B1D448806B40F02A
:1045B0000800D2498863042020E7D048406B00F00F
:1045C000020038B1CD48806B40F00200CB498863CF
:1045D000022013E7C948406B00F0100038B1C7480B
:1045E000806B40F01000C5498863052006E7C3488A
:1045F000406B00F4007040B1C048806B40F4007024
:10460000BE4988630720F9E620E0BC48406B00F40F
:104610008070B0B1BA48007838B1B9480078012844
:1046200003D0B748007802280BD1002201210C20CA
:10463000FEF74CFD0C20FEF720FD06460EB130467D
:10464000DCE640F2FF50AD49886342E0AA480078BA
:1046500001283ED10020AB4908700120AA4908700A
:104660000020AA490870A548C06B40F21A310843DF
:10467000A249C86305FB04F101220398FFF779FA08
:104680009E48C06A40F008009C49C862A04F00E004
:104690007F1EA048006800F4005008B9002FF7D131
:1046A0001FB9FFF7FCF90420A8E6994F00E07F1E30
:1046B0009648007820B99348007808B9002FF6D1C1
:1046C0000FB904209AE68F48007810B18D48007821
:1046D00094E640F2FF508949886301A8FFF7BEFCC9
:1046E000064603E001A8FFF7B9FC06463EB99DF86F
:1046F00004000728F6D09DF804000628F2D03046C2
:104700007CE600B57D48406B00F4807020B37E48A5
:10471000007801280AD1002201210C20FEF7D6FCE6
:104720000C20FEF7AAFC7749087002E000207549CA
:1047300008707248806B40F4807070498863084646
:10474000C06B4CF23A3188436C49C86301206F4911
:1047500008706C48007800BD6848406B00F00200AB
:1047600080B16648806B40F0020064498863084667
:10477000C06B4CF23A3188436049C86302206149FA
:104780000870E8E75D48406B00F0080080B15B48C6
:10479000806B40F00800594988630846C06B4CF2B2
:1047A0003A3188435549C863042056490870D2E716
:1047B0005248406B00F0200080B15048806B40F0C0
:1047C00020004E4988630846C06B4CF23A3188435A
:1047D0004A49C86306204B490870BCE74748406B0C
:1047E00000F0100080B14548806B40F01000434954
:1047F00088630846C06B4CF23A3188433F49C8632E
:10480000052040490870A6E73C48406B00F4007062
:1048100080B13A48806B40F400703849886308469C
:10482000C06B4CF23A3188433449C863072035499C
:10483000087090E700208EE700B5FFF762FF00BD2B
:104840002DE9F04106460F4614464FF000087F025E
:1048500006F00300B8B1002512E04FF4007000FB31
:10486000057102462C48FFF7D5F980464FF40072D7
:10487000294930461FF0CEFF06F50076681CC5B208
:10488000A542EADB10E0012C06D16202394630462F
:10489000FFF7C0F9804607E023464FF4007239461F
:1048A0003046FFF7C0FA80464046BDE8F0812DE96A
:1048B000F04104460F4615464FF000087F0204F011
:1048C000030058B3002612E04FF40072214612484C
:1048D0001FF0A0FF4FF4007000FB067102460E4867
:1048E000FFF713FC804604F50074701CC6B2AE429C
:1048F000EADB25E0FFFF0F00900000200080014070
:1049000088000020920000209100002093000020E9
:10491000FFFF020000040240701F0020FFE7012D8E
:1049200006D16A0239462046FFF7EFFB804607E0D2
:104930002B464FF4007239462046FFF748FD80466B
:104940004046BDE8F081000000BF011EA0F1010259
:10495000D0B2FAD1704710B504464020FE49086035
:10496000E0B201F0BEF92020FB490860091F086091
:1049700010BD10B504464020F749091F0860E0B299
:1049800001F0AFF92020F4490860091F086010BD4C
:1049900010B54020F049091F08601020091D08606B
:1049A000091F0860FF2001F071F90446204610BD80
:1049B0002DE9F04104460025002600274020E64965
:1049C000091F08601020091D0860E0B201F05EF9BF
:1049D000E0B201F05BF900F0F8000502E0B201F08E
:1049E00055F900F0FC00C600E0B201F04FF9C7082D
:1049F0001020D949091F0860A819384480B2BDE8C1
:104A0000F08170B505460C462846FFF7A4FF204606
:104A1000FFF7AFFF70BD70B504462046FFF79BFF60
:104A2000FFF7B6FF0546284670BD10B5CB4908898B
:104A3000FFF791FF10BD10B504464020C649091F7D
:104A40000860200A01F04DF9E0B201F04AF9202097
:104A5000C1490860091F086010BD30B5014601F06A
:104A60001F04C1F34513CA0AE50205EB43151544BB
:104A7000A8B230BD30B5014601F01F04C1F34513A3
:104A8000CA0A950405EB832505EB840030BD2DE9AA
:104A9000F04104460D4616461F46A019401E86B238
:104AA000E819401E87B2AD48808849F241318842FA
:104AB00005D0AA48808849F2864188421FD1A7497B
:104AC0004889FFF748FF2012FFF753FFE0B2FFF7D6
:104AD00050FF3012FFF74DFFF0B2FFF74AFF9F493A
:104AE0008889FFF738FF2812FFF743FFE8B2FFF786
:104AF00040FF3812FFF73DFFF8B2FFF73AFFBDE87D
:104B0000F08170B504460D46002694480088A04206
:104B100003DD92484088A84201DC002070BD0123DB
:104B20001A4629462046FFF7B2FF8C48808849F292
:104B30004131884205D08948808849F286418842BF
:104B400007D12E20FFF707FFFF20FFF731FF0646B2
:104B500006E02220FFF7FFFE2220FFF729FF06468E
:104B60003046DBE710B57D48808849F24131884204
:104B700005D07A48808849F28641884203D12920AD
:104B8000FFF7E9FE04E040F273110720FFF739FF59
:104B900010BD10B57148808849F24131884205D076
:104BA0006E48808849F28641884203D12820FFF769
:104BB000D2FE03E000210720FFF723FF10BD70B5F0
:104BC00004460D466548808849F24131884205D047
:104BD0006248808845F21031884214D15F49488983
:104BE000FFF7B9FE2012FFF7C4FEE0B2FFF7C1FEE7
:104BF0005A498889FFF7AFFE2812FFF7BAFEE8B2DC
:104C0000FFF7B7FEB0E05548808846F604018842B9
:104C10001DD152488079012804D150480088401E97
:104C2000001B84B24D494889FFF795FE2012FFF71B
:104C3000A0FEE0B2FFF79DFE48498889FFF78BFE92
:104C40002812FFF796FEE8B2FFF793FE8CE0434888
:104C5000808841F66311884247D140488079A8B9DD
:104C60003E480088401E001B84B23C494889FFF73B
:104C700072FE0020FFF77DFE0020FFF77AFE201273
:104C8000FFF777FEE0B2FFF774FE16E0334948897C
:104C9000FFF761FE2012FFF76CFEE0B2FFF769FE3E
:104CA0002E490988491EC1F30F20FFF762FE2B49E8
:104CB0000978491EC8B2FFF75CFE28498889FFF7CA
:104CC0004AFE2812FFF755FEE8B2FFF752FE2349CD
:104CD0004988491EC1F30F20FFF74BFE1F49897811
:104CE000491EC8B2FFF745FE3EE01C48808845F2E9
:104CF0001051884220D119494889FFF72CFE201213
:104D0000FFF737FE15494989491C88B2FFF723FE92
:104D1000E0B2FFF72EFE11498889FFF71CFE28122A
:104D2000FFF727FE0D498989491C88B2FFF713FE5A
:104D3000E8B2FFF71EFE17E008488079012804D189
:104D400006480088401E001B84B204494889214659
:104D5000FFF757FE014903E0140C014070210020C9
:104D600088892946FFF74DFE70BD2DE9F0410546C3
:104D700000240027FE488079012818D1082D15D27B
:104D8000DFE805F00406080A0C0E101206250DE0F7
:104D900007250BE0042509E0052507E0012505E0CE
:104DA000002503E0032501E0022500BF00BFF04815
:104DB000808849F24131884205D0ED48808849F227
:104DC0008641884278D1082D1CD2DFE805F0040620
:104DD000090C0F12151800BF14E044F0800411E014
:104DE00044F040040EE044F0C0040BE044F0200422
:104DF00008E044F0600405E044F0A00402E044F060
:104E0000E00400BF00BF362744F0080421463846BE
:104E1000FFF7F7FD04F0200018B9D5488079012884
:104E20000DD1D3480088D2494988884214DAD04845
:104E300006884088CE490880084646800CE0CC4869
:104E40000088CB494988884206DDC94806884088E1
:104E5000C749088008464680C5494889FFF77BFD59
:104E60000020FFF786FD0020FFF783FDC049098879
:104E7000491EC1F30F20FFF77CFDBD490978491E8B
:104E8000C8B2FFF776FDBA498889FFF764FD0020B4
:104E9000FFF76FFD0020FFF76CFDB5494988491EFB
:104EA000C1F30F20FFF765FDB1498978491EC8B2EB
:104EB000FFF75FFD27E0FFE7082D1CD2DFE805F0D4
:104EC00004070A0D0F12151844F0300413E044F0E3
:104ED000100410E044F020040DE000BF0BE044F0AB
:104EE000380408E044F0280405E044F0180402E027
:104EF00044F0080400BF00BF032744F48054214657
:104F00003846FFF77EFDBDE8F08170B504460D46DA
:104F100001231A4629462046FFF7B9FDFFF785FD14
:104F200094480088FFF787FD70BD70B505460E46B2
:104F3000144601231A4631462846FFF7A8FDFFF71D
:104F400074FD2046FFF777FD70BD10B5044644BBE5
:104F5000002087498871F02008804FF4A0704880B5
:104F60000846808849F24131884205D080488088CF
:104F700049F2864188423CD12C207D4908812A2073
:104F800048812B2088810846808849F286418842E2
:104F90002FD14FF4A070764908804FF4F07048800C
:104FA00027E00120724988714FF4A0700880F0203A
:104FB00048800846808849F24131884205D06C48D3
:104FC000808849F28641884213D12C2068490881A3
:104FD0002A2048812B2088810846808849F2864112
:104FE000884206D14FF4F070614908804FF4A070F8
:104FF000488061480078FFF7B8FE10BD70B50646DE
:1050000000245B4805884088454359484388028806
:1050100000210846FFF73BFDFFF707FD00BF03E057
:105020003046FFF708FD641CAC42F9D370BD08B5EB
:105030000121082001F050FDC020ADF80000102033
:105040008DF8030003208DF8020069464B4801F0FB
:1050500087FA4021494801F030FB00F0C9FD0020EB
:10506000474908600A2001F0D9F801204549C1F8F4
:105070009C01322001F0D2F801210020FFF7C1FC91
:10508000322001F0CBF849F2413039498880084696
:1050900081883DA01FF034F93548808849F24131BC
:1050A000884264D1CF20FFF756FC0020FFF761FC57
:1050B000C120FFF75EFC3020FFF75BFCED20FFF71F
:1050C0004AFC6420FFF755FC0320FFF752FC122036
:1050D000FFF74FFC8120FFF74CFCE820FFF73BFC7B
:1050E0008520FFF746FC1020FFF743FC7A20FFF7EE
:1050F00040FCCB20FFF72FFC3920FFF73AFC2C2097
:10510000FFF737FC0020FFF734FC3420FFF731FCB9
:105110000220FFF72EFCF720FFF71DFC2020FFF7F1
:1051200028FCEA20FFF717FC0020FFF722FC0020F4
:10513000FFF71FFCC020FFF70EFC1B20FFF719FC38
:10514000C120FFF708FC0120FFF713FCC520FFF783
:1051500002FC3020FFF70DFC3020FFF70AFCC720CF
:10516000FFF7F9FBB720FFF704FC362014E0C4E09A
:10517000702100209600002094000020000C0140C7
:105180009C81214200802142204C43442049443AE2
:1051900025780D0A00000000FFF7DDFB4820FFF72F
:1051A000E8FB3A20FFF7D7FB5520FFF7E2FBB120E1
:1051B000FFF7D1FB0020FFF7DCFB1A20FFF7D9FB3C
:1051C000B620FFF7C8FB0A20FFF7D3FBA220FFF7AA
:1051D000D0FBF220FFF7BFFB0020FFF7CAFB262021
:1051E000FFF7B9FB0120FFF7C4FBE020FFF7B3FB9B
:1051F0000F20FFF7BEFB2A20FFF7BBFB2820FFF79D
:10520000B8FB0820FFF7B5FB0E20FFF7B2FB082024
:10521000FFF7AFFB5420FFF7ACFBA920FFF7A9FB7A
:105220004320FFF7A6FB0A20FFF7A3FB0F20FFF7A1
:10523000A0FB0020FFF79DFB0020FFF79AFB00205A
:10524000FFF797FB0020FFF794FBE120FFF783FBBC
:105250000020FFF78EFB1520FFF78BFB1720FFF7D1
:1052600088FB0720FFF785FB1120FFF782FB062054
:10527000FFF77FFB2B20FFF77CFB5620FFF779FB26
:105280003C20FFF776FB0520FFF773FB1020FFF7AC
:1052900070FB0F20FFF76DFB3F20FFF76AFB3F20FD
:1052A000FFF767FB0F20FFF764FB2B20FFF753FB93
:1052B0000020FFF75EFB0020FFF75BFB0120FFF7FC
:1052C00058FB3F20FFF755FB2A20FFF744FB002047
:1052D000FFF74FFB0020FFF74CFB0020FFF749FBD7
:1052E000EF20FFF746FB1120FFF735FB782000F099
:1052F00095FF2920FFF72FFBF8E0FC48808849F252
:1053000086418842F8D1F220FFF725FB1820FFF7ED
:1053100030FBA320FFF72DFB1220FFF72AFB022012
:10532000FFF727FBB220FFF724FB1220FFF721FB3A
:10533000FF20FFF71EFB1020FFF71BFB0020FFF7ED
:1053400018FBF820FFF707FB2120FFF712FB0420D2
:10535000FFF70FFB1320FFF7FEFA3620FFF7FBFAEB
:105360000020FFF706FBB420FFF7F5FA0220FFF755
:1053700000FBB620FFF7EFFA0220FFF7FAFA22202F
:10538000FFF7F7FAC120FFF7E6FA4120FFF7F1FA3D
:10539000C520FFF7E0FA0020FFF7EBFA1820FFF72F
:1053A000E8FA3A20FFF7D7FA6620FFF7E2FAF12091
:1053B000FFF7D1FA3620FFF7DCFA0420FFF7D9FA1D
:1053C0000020FFF7D6FA3C20FFF7D3FA0F20FFF7B3
:1053D000D0FA8F20FFF7CDFAF920FFF7BCFA0020B2
:1053E000FFF7C7FA0820FFF7C4FAB020FFF7B3FAB7
:1053F0000F20FFF7BEFAB120FFF7ADFA7020FFF7DC
:10540000B8FA1120FFF7B5FAC020FFF7A4FA102070
:10541000FFF7AFFA1020FFF7ACFAE020FFF79BFA96
:105420000F20FFF7A6FA1F20FFF7A3FA1C20FFF7B3
:10543000A0FA0C20FFF79DFA0F20FFF79AFA082038
:10544000FFF797FA4820FFF794FA9820FFF791FAB0
:105450003720FFF78EFA0A20FFF78BFA1320FFF7A9
:1054600088FA0420FFF785FA1120FFF782FA0D2051
:10547000FFF77FFA0020FFF77CFAE120FFF76BFAD5
:105480000F20FFF776FA3220FFF773FA2E20FFF78E
:1054900070FA0B20FFF76DFA0D20FFF76AFA05206E
:1054A000FFF767FA4720FFF764FA7520FFF761FA04
:1054B0003720FFF75EFA0620FFF75BFA1020FFF7B0
:1054C00058FA0320FFF755FA2420FFF752FA20205C
:1054D000FFF74FFA0020FFF74CFA1120FFF73BFAD5
:1054E000782000F09BFE2920FFF735FA0120FFF716
:1054F0002CFD01207E4908604FF6FF70FFF77EFD0E
:1055000008BD2DE9F0470746884614461D46DDF8DC
:1055100020902B46224641463846FFF7B8FAFFF75F
:1055200084FA002603E04846FFF785FA761C04FB60
:1055300005F0B042F7D8BDE8F0872DE9F0470746FF
:10554000884615461E46DDF8209033462A464146D9
:105550003846FFF79CFAFFF768FA002404E039F8B0
:105560001400FFF768FA641C06FB05F0A042F6D8A9
:10557000BDE8F0872DE9FF4F85B081468A460020BF
:10558000049003900798A0EB09050898A0EB0A0681
:10559000CDF80890CDF804A0002D01DD012705E02D
:1055A0000DB9002702E04FF0FF376D42002E02DDFB
:1055B0004FF0010806E016B94FF0000802E04FF086
:1055C000FF387642B54201DD2C4600E034464FF00C
:1055D000000B21E0019A91B2029A90B2FFF795FC7C
:1055E0000498284404900398304403900498A042FF
:1055F00005DD0498001B049002983844029003983B
:10560000A04205DD0398001B0390019840440190DF
:105610000BF101001FFA80FB601C8345DADD09B045
:10562000BDE8F08F2DE9F04104460D4616461F46B1
:105630002B46324629462046FFF79CFF3B46224632
:1056400029462046FFF796FF3B463246394620461C
:10565000FFF790FF3B46324629463046FFF78AFF68
:10566000BDE8F0812DE9F04706460F46904600243C
:1056700045460320A0EB480941E07A1B91B232195C
:1056800090B2FFF742FC3A1B91B2721990B2FFF749
:105690003CFC3A1991B2721990B2FFF736FC7A19B4
:1056A00091B2321990B2FFF730FC7A1991B2321BE5
:1056B00090B2FFF72AFC3A1991B2721B90B2FFF731
:1056C00024FC7A1B91B2321B90B2FFF71EFC3A1BEE
:1056D00091B2721B90B2FFF718FC641CB9F1000F75
:1056E00008DAA000801D814409E00000702100203C
:1056F0009C812142601B80000A3081446D1EAC42B7
:10570000BBDDBDE8F0872DE9F84F05460F46904612
:105710001E460097E348B0F80090A8F1200000F082
:10572000FF080A9800284ED1002449E00C2E07D12A
:1057300008EB4800DC4901EB800010F804A004E00D
:10574000DA4800EB081010F804A04FF0000B31E02D
:105750000AF0800018B1D348A0F8009003E0D448C4
:105760000088D049088039462846FFF7CEFB4FEA2B
:105770004A604FEA106A781C87B2CE480088A84277
:1057800004DCC848A0F80090BDE8F88F0098381AEB
:10579000B0420BD1009F681C85B2C6480088A84261
:1057A00003DCC048A0F80090EEE706E00BF1010032
:1057B00000F0FF0BBBF1080FCADB00BF601CC4B2D6
:1057C000B442B3DB44E0002440E00C2E07D108EBE8
:1057D0004800B54901EB800010F804A004E0B3488C
:1057E00000EB081010F804A04FF0000B28E00AF0BE
:1057F000800018B139462846FFF787FB4FEA4A6018
:105800004FEA106A781C87B2AA484088A84203DC95
:10581000A448A0F80090B7E70098381AB0420BD11E
:10582000009F681C85B2A3480088A84203DC9D48FD
:10583000A0F80090A8E706E00BF1010000F0FF0BD4
:10584000BBF1080FD3DB00BF601CC4B2B442BCDBA9
:105850009448A0F8009000BF96E710B502460120DA
:1058600000E050430B1EA1F10104E1B2F9D110BDDB
:105870002DE9FF4F81B0074691461E460E9D4FF021
:10588000000A002439E0301B401EC1B20A20FFF795
:10589000E4FFB9FBF0F00A21B0FBF1F201FB1208C2
:1058A000BAF1000F16D1701EA04213DDB8F1000F3F
:1058B0000ED10020AB4605EBDB71491001FB0471F2
:1058C000009088B22B4620220299FFF71CFF12E0BD
:1058D0004FF0010A0020AB4605EBDB71491001FBDC
:1058E0000471009088B208F13001CAB22B460299C7
:1058F000FFF709FF00BF601CC4B2B442C3DB05B0B0
:10590000BDE8F08F2DE9FF4F83B0064692461F4653
:10591000DDE910480020029000254DE0781B401E74
:10592000C1B20A20FFF799FFBAFBF0F00A21B0FBE1
:10593000F1F201FB1209029850BB781EA84227DD44
:10594000B9F1000F22D108F0800078B108F0010011
:10595000A34604EBDB71491001FB0561009088B29E
:10596000234630220499FFF7CEFE0EE008F0010036
:10597000A34604EBDB71491001FB0561009088B27E
:10598000234620220499FFF7BEFE13E00120029077
:1059900008F00100A34604EBDB71491001FB05612F
:1059A000009088B209F13001CAB223460499FFF78A
:1059B000AAFE00BF681CC5B2BD42AFDB07B0BDE8A0
:1059C000F08F2DE9F84F04460D4690469946DDE9E3
:1059D0000A6704F0FF0A08EB04001FFA80F809EBDD
:1059E00005001FFA80F916E0444502DB5446A81969
:1059F00085B24D4500DB14E0002000903A78334634
:105A000029462046FFF77FFE304606EBD07104EBB7
:105A100061018CB27F1C38787E2802DC387820281F
:105A2000E2DA00BFBDE8F88F70B5224A548804EB73
:105A3000D47251101F4A158805EBD5725010FFF72C
:105A400060F806461B4A548804EBD4725110194A78
:105A5000158805EBD57250104AF6AA22FFF765FAB1
:105A6000144A548804EBD4725110124A158805EB7D
:105A7000D5725010FFF745F84AF6AA2188420ED198
:105A80000C4A558805EBD57251100A4A148804EB6C
:105A9000D47250103246FFF748FA012070BD002042
:105AA000FCE7000096000020CE960208429B020808
:105AB000980000207021002070B505460C46012199
:105AC000022000F0FCFFFE4802F010FFFD48FE49F6
:105AD000086008464560002088600846C4600020D1
